{
  "contractName": "Judge",
  "abi": [
    {
      "constant": true,
      "inputs": [
        {
          "internalType": "uint256",
          "name": "idx",
          "type": "uint256"
        },
        {
          "internalType": "bytes32",
          "name": "key",
          "type": "bytes32"
        },
        {
          "internalType": "bytes32",
          "name": "ciphertext",
          "type": "bytes32"
        }
      ],
      "name": "dec",
      "outputs": [
        {
          "internalType": "bytes32",
          "name": "",
          "type": "bytes32"
        }
      ],
      "payable": false,
      "stateMutability": "pure",
      "type": "function"
    },
    {
      "constant": true,
      "inputs": [
        {
          "internalType": "uint256",
          "name": "val1",
          "type": "uint256"
        },
        {
          "internalType": "uint256",
          "name": "val2",
          "type": "uint256"
        }
      ],
      "name": "modComp",
      "outputs": [
        {
          "internalType": "uint256",
          "name": "",
          "type": "uint256"
        }
      ],
      "payable": false,
      "stateMutability": "view",
      "type": "function"
    },
    {
      "constant": true,
      "inputs": [
        {
          "internalType": "uint256",
          "name": "idx",
          "type": "uint256"
        },
        {
          "internalType": "string",
          "name": "element",
          "type": "string"
        },
        {
          "internalType": "bytes32[15]",
          "name": "proof",
          "type": "bytes32[15]"
        },
        {
          "internalType": "bytes32",
          "name": "root",
          "type": "bytes32"
        }
      ],
      "name": "mVrfyGate",
      "outputs": [
        {
          "internalType": "bool",
          "name": "",
          "type": "bool"
        }
      ],
      "payable": false,
      "stateMutability": "pure",
      "type": "function"
    },
    {
      "constant": true,
      "inputs": [
        {
          "internalType": "uint256",
          "name": "idx",
          "type": "uint256"
        },
        {
          "internalType": "bytes32",
          "name": "element",
          "type": "bytes32"
        },
        {
          "internalType": "bytes32[15]",
          "name": "proof",
          "type": "bytes32[15]"
        },
        {
          "internalType": "bytes32",
          "name": "root",
          "type": "bytes32"
        }
      ],
      "name": "mVrfy",
      "outputs": [
        {
          "internalType": "bool",
          "name": "",
          "type": "bool"
        }
      ],
      "payable": false,
      "stateMutability": "pure",
      "type": "function"
    },
    {
      "constant": false,
      "inputs": [
        {
          "internalType": "uint256",
          "name": "idx",
          "type": "uint256"
        },
        {
          "internalType": "string",
          "name": "element",
          "type": "string"
        },
        {
          "internalType": "bytes32[15]",
          "name": "proof",
          "type": "bytes32[15]"
        }
      ],
      "name": "storeGateProof",
      "outputs": [],
      "payable": false,
      "stateMutability": "nonpayable",
      "type": "function"
    },
    {
      "constant": false,
      "inputs": [
        {
          "internalType": "uint256",
          "name": "idx",
          "type": "uint256"
        },
        {
          "internalType": "bytes32",
          "name": "element",
          "type": "bytes32"
        },
        {
          "internalType": "bytes32[15]",
          "name": "proof",
          "type": "bytes32[15]"
        }
      ],
      "name": "storeOutProof",
      "outputs": [],
      "payable": false,
      "stateMutability": "nonpayable",
      "type": "function"
    },
    {
      "constant": false,
      "inputs": [
        {
          "internalType": "uint256",
          "name": "idx",
          "type": "uint256"
        },
        {
          "internalType": "bytes32",
          "name": "element",
          "type": "bytes32"
        },
        {
          "internalType": "bytes32[15]",
          "name": "proof",
          "type": "bytes32[15]"
        }
      ],
      "name": "storeIn1Proof",
      "outputs": [],
      "payable": false,
      "stateMutability": "nonpayable",
      "type": "function"
    },
    {
      "constant": false,
      "inputs": [
        {
          "internalType": "uint256",
          "name": "idx",
          "type": "uint256"
        },
        {
          "internalType": "bytes32",
          "name": "element",
          "type": "bytes32"
        },
        {
          "internalType": "bytes32[15]",
          "name": "proof",
          "type": "bytes32[15]"
        }
      ],
      "name": "storeIn2Proof",
      "outputs": [],
      "payable": false,
      "stateMutability": "nonpayable",
      "type": "function"
    },
    {
      "constant": true,
      "inputs": [
        {
          "internalType": "bytes32",
          "name": "key",
          "type": "bytes32"
        },
        {
          "internalType": "bytes32",
          "name": "zRoot",
          "type": "bytes32"
        },
        {
          "internalType": "bytes32",
          "name": "phiRoot",
          "type": "bytes32"
        }
      ],
      "name": "judge",
      "outputs": [
        {
          "internalType": "bool",
          "name": "",
          "type": "bool"
        }
      ],
      "payable": false,
      "stateMutability": "view",
      "type": "function"
    }
  ],
  "bytecode": "0x6080604052605960005534801561001557600080fd5b50610d22806100256000396000f3fe608060405234801561001057600080fd5b50600436106100935760003560e01c806373b331fb1161006657806373b331fb1461028557806393650c181461038d578063ab915d1f146104b7578063b9c3726d14610503578063e752c3b71461057e57610093565b80631089f3f4146100985780632cef8e4b14610113578063585107891461016d57806360714697146101e8575b600080fd5b61011160048036036102208110156100af57600080fd5b810190808035906020019092919080359060200190929190806101e00190600f806020026040519081016040528092919082600f60200280828437600081840152601f19601f82011690508083019250505050505091929192905050506105d4565b005b6101536004803603606081101561012957600080fd5b810190808035906020019092919080359060200190929190803590602001909291905050506105f9565b604051808215151515815260200191505060405180910390f35b6101e6600480360361022081101561018457600080fd5b810190808035906020019092919080359060200190929190806101e00190600f806020026040519081016040528092919082600f60200280828437600081840152601f19601f8201169050808301925050505050509192919290505050610890565b005b61026b60048036036102408110156101ff57600080fd5b810190808035906020019092919080359060200190929190806101e00190600f806020026040519081016040528092919082600f60200280828437600081840152601f19601f8201169050808301925050505050509192919290803590602001909291905050506108b5565b604051808215151515815260200191505060405180910390f35b61038b600480360361022081101561029c57600080fd5b8101908080359060200190929190803590602001906401000000008111156102c357600080fd5b8201836020820111156102d557600080fd5b803590602001918460018302840111640100000000831117156102f757600080fd5b91908080601f016020809104026020016040519081016040528093929190818152602001838380828437600081840152601f19601f820116905080830192505050505050509192919290806101e00190600f806020026040519081016040528092919082600f60200280828437600081840152601f19601f82011690508083019250505050505091929192905050506109c5565b005b61049d60048036036102408110156103a457600080fd5b8101908080359060200190929190803590602001906401000000008111156103cb57600080fd5b8201836020820111156103dd57600080fd5b803590602001918460018302840111640100000000831117156103ff57600080fd5b91908080601f016020809104026020016040519081016040528093929190818152602001838380828437600081840152601f19601f820116905080830192505050505050509192919290806101e00190600f806020026040519081016040528092919082600f60200280828437600081840152601f19601f8201169050808301925050505050509192919290803590602001909291905050506109fa565b604051808215151515815260200191505060405180910390f35b6104ed600480360360408110156104cd57600080fd5b810190808035906020019092919080359060200190929190505050610b55565b6040518082815260200191505060405180910390f35b61057c600480360361022081101561051a57600080fd5b810190808035906020019092919080359060200190929190806101e00190600f806020026040519081016040528092919082600f60200280828437600081840152601f19601f8201169050808301925050505050509192919290505050610b7d565b005b6105be6004803603606081101561059457600080fd5b81019080803590602001909291908035906020019092919080359060200190929190505050610ba2565b6040518082815260200191505060405180910390f35b826035819055508160368190555080603790600f6105f3929190610be3565b50505050565b60008015156106e360015460028054600181600116156101000203166002900480601f01602080910402602001604051908101604052809291908181526020018280546001816001161561010002031660029004801561069a5780601f1061066f5761010080835404028352916020019161069a565b820191906000526020600020905b81548152906001019060200180831161067d57829003601f168201915b50505050506003600f806020026040519081016040528092919082600f80156106d8576020028201915b8154815260200190600101908083116106c4575b5050505050866109fa565b151514156106f45760009050610889565b600015156107456013546014546015600f806020026040519081016040528092919082600f801561073a576020028201915b815481526020019060010190808311610726575b5050505050876108b5565b151514156107565760009050610889565b600061076760135486601454610ba2565b9050600015156107ba6024546025546026600f806020026040519081016040528092919082600f80156107af576020028201915b81548152602001906001019080831161079b575b5050505050886108b5565b151514156107cc576000915050610889565b6000151561081d6035546036546037600f806020026040519081016040528092919082600f8015610812576020028201915b8154815260200190600101908083116107fe575b5050505050886108b5565b1515141561082f576000915050610889565b600061084060245487602554610ba2565b9050600061085360355488603654610ba2565b905060006108678360001c8360001c610b55565b90508360001c8114610880576000945050505050610889565b60019450505050505b9392505050565b826024819055508160258190555080602690600f6108af929190610be3565b50505050565b600080846040516020018082815260200191505060405160208183030381529060405280519060200120905060008090505b600f8110156109a457600060028260020a898161090057fe5b048161090857fe5b06141561095557818582600f811061091c57fe5b60200201516040516020018083815260200182815260200192505050604051602081830303815290604052805190602001209150610997565b8481600f811061096157fe5b60200201518260405160200180838152602001828152602001925050506040516020818303038152906040528051906020012091505b80806001019150506108e7565b50828114156109b75760019150506109bd565b60009150505b949350505050565b8260018190555081600290805190602001906109e2929190610c23565b5080600390600f6109f4929190610be3565b50505050565b600080846040516020018082805190602001908083835b60208310610a345780518252602082019150602081019050602083039250610a11565b6001836020036101000a03801982511681845116808217855250505050505090500191505060405160208183030381529060405280519060200120905060008090505b600f811015610b3457600060028260020a8981610a9057fe5b0481610a9857fe5b061415610ae557818582600f8110610aac57fe5b60200201516040516020018083815260200182815260200192505050604051602081830303815290604052805190602001209150610b27565b8481600f8110610af157fe5b60200201518260405160200180838152602001828152602001925050506040516020818303038152906040528051906020012091505b8080600101915050610a77565b5082811415610b47576001915050610b4d565b60009150505b949350505050565b60008082840290506000805482901c600160005460020a038316019050809250505092915050565b826013819055508160148190555080601590600f610b9c929190610be3565b50505050565b600080838560405160200180838152602001828152602001925050506040516020818303038152906040528051906020012090508083189150509392505050565b82600f8101928215610c12579160200282015b82811115610c11578251825591602001919060010190610bf6565b5b509050610c1f9190610ca3565b5090565b828054600181600116156101000203166002900490600052602060002090601f016020900481019282601f10610c6457805160ff1916838001178555610c92565b82800160010185558215610c92579182015b82811115610c91578251825591602001919060010190610c76565b5b509050610c9f9190610cc8565b5090565b610cc591905b80821115610cc1576000816000905550600101610ca9565b5090565b90565b610cea91905b80821115610ce6576000816000905550600101610cce565b5090565b9056fea265627a7a723158207e955519e93acd4c9c6d88b55962ff660a299f4b5a88d246980149d136572d7c64736f6c63430005100032",
  "source": "pragma solidity >=0.4.22 <0.7.0;\n\n/**\n * @title Judge\n * @dev To experiment with Gas cost of various Proof of misbehaviour\n */\ncontract Judge {\n\n    uint256 constant depth = 15;\n    \n    uint256 Mp = 89;\n    \n    uint256 gateIdx;\n    string gateDes;\n    bytes32[depth] gateProof;\n    bytes32 gateType;\n        \n    uint256 outIdx;\n    bytes32 outEnc;\n    bytes32[depth] outProof;    \n\n    uint256 in1Idx;\n    bytes32 in1Enc;\n    bytes32[depth] in1Proof;\n        \n    uint256 in2Idx;\n    bytes32 in2Enc;\n    bytes32[depth] in2Proof;\n\n\n    \n    function dec(uint256 idx, bytes32 key, bytes32 ciphertext) public pure returns (bytes32) {\n    \n        bytes32 key_i_hash = keccak256(abi.encodePacked(key, idx));\n        \n        return ciphertext ^ key_i_hash;\n        \n    }\n    \n    function modComp(uint256 val1, uint256 val2) public view returns (uint256){\n        \n        uint256 product = val1 * val2;\n        \n        uint256 result = (product & (2**Mp)-1) + (product >> Mp);\n        \n        return result;\n    }\n    \n    function mVrfyGate(uint256 idx, string memory element, bytes32[depth] memory proof, bytes32 root) public pure returns (bool){\n        \n        bytes32 hash1 = keccak256(abi.encodePacked(element));\n        \n        for(uint i = 0; i < depth; i++){\n            if((idx / uint256(2**i) % 2) == 0){\n                hash1 = keccak256(abi.encodePacked(hash1, proof[i]));\n            } else {\n                hash1 = keccak256(abi.encodePacked(proof[i], hash1));\n            }\n        }\n        \n        if(hash1 == root){\n            return true;\n        } else {\n            return false;\n        }\n    }\n    \n      function mVrfy(uint256 idx, bytes32 element, bytes32[depth] memory proof, bytes32 root) public pure returns (bool){\n        \n        bytes32 hash1 = keccak256(abi.encodePacked(element));\n        \n        for(uint i = 0; i < depth; i++){\n            if((idx / uint256(2**i) % 2) == 0){\n                hash1 = keccak256(abi.encodePacked(hash1, proof[i]));\n            } else {\n                hash1 = keccak256(abi.encodePacked(proof[i], hash1));\n            }\n        }\n        \n        if(hash1 == root){\n            return true;\n        } else {\n            return false;\n        }\n    }\n    \n    function storeGateProof(uint256 idx, string memory element, bytes32[depth] memory proof) public {\n        gateIdx = idx;\n        gateDes = element;\n        gateProof = proof;\n    }\n    \n    function storeOutProof(uint256 idx, bytes32 element, bytes32[depth] memory proof) public {\n        outIdx = idx;\n        outEnc = element;\n        outProof = proof;\n    }\n    \n    function storeIn1Proof(uint256 idx, bytes32 element, bytes32[depth] memory proof) public {\n        in1Idx = idx;\n        in1Enc = element;\n        in1Proof = proof;\n    }\n    \n    function storeIn2Proof(uint256 idx, bytes32 element, bytes32[depth] memory proof) public {\n        in2Idx = idx;\n        in2Enc = element;\n        in2Proof = proof;\n    }\n    \n    function judge(bytes32 key, bytes32 zRoot, bytes32 phiRoot) public view returns (bool){\n        \n        if(mVrfyGate(gateIdx, gateDes, gateProof, phiRoot) == false){\n            \n            return false;\n        }\n        \n        \n        if(mVrfy(outIdx, outEnc, outProof, zRoot) == false){\n            \n            return false;\n        }\n        \n        \n        bytes32 outPlain = dec(outIdx, key, outEnc);\n        \n        if(mVrfy(in1Idx, in1Enc, in1Proof, zRoot) == false){\n            \n            return false;\n        }\n        \n        if(mVrfy(in2Idx, in2Enc, in2Proof, zRoot) == false){\n            \n            return false;\n        }\n       \n        \n        bytes32 in1Plain = dec(in1Idx, key, in1Enc);\n        \n        bytes32 in2Plain = dec(in2Idx, key, in2Enc);\n        \n        uint256 result = modComp(uint256(in1Plain), uint256(in2Plain));\n    \n        if(result != uint256(outPlain)){\n            return false;\n        } else {\n            return true;   \n        }\n        \n    }\n    \n    \n}\n",
  "sourcePath": "/home/vm-pfairswap/pFairSwap/experiment-uniHash/contracts/Judge.sol",
  "compiler": {
    "name": "solc",
    "version": "0.5.16+commit.9c3226ce.Emscripten.clang"
  },
  "schemaVersion": "3.4.3",
  "updatedAt": "2022-01-03T03:24:14.358Z",
  "networkType": "ethereum",
  "devdoc": {
    "details": "To experiment with Gas cost of various Proof of misbehaviour",
    "methods": {},
    "title": "Judge"
  },
  "userdoc": {
    "methods": {}
  }
}